{
  "address": "0x6Bf36417fEB1F079F90DEdCBCc0FBfC3d152f8fd",
  "abi": [
    {
      "inputs": [],
      "name": "createTaskContract",
      "outputs": [
        {
          "internalType": "address",
          "name": "",
          "type": "address"
        }
      ],
      "stateMutability": "nonpayable",
      "type": "function"
    }
  ],
  "transactionHash": "0xb6137574260221a32b1ddc2d76229fe113778ff74b497e9611ee11d8b64bbb1e",
  "args": [],
  "numDeployments": 1,
  "solcInputHash": "aa9525bad880c277b2a452f031fc30bd",
  "bytecode": "0x608060405234801561001057600080fd5b5061015b806100206000396000f3fe608060405234801561001057600080fd5b506004361061002b5760003560e01c80639233cf7414610030575b600080fd5b610038610054565b6040516001600160a01b03909116815260200160405180910390f35b60008060405161006390610086565b604051809103906000f08015801561007f573d6000803e3d6000fd5b5092915050565b6093806100938339019056fe6080604052348015600f57600080fd5b50607680601d6000396000f3fe6080604052348015600f57600080fd5b506004361060285760003560e01c80634a3e22ce14602d575b600080fd5b6040805130815290519081900360200190f3fea26469706673582212208609fbe5ddfe91f11b148ad01b1e09f285773b001b8a91fa077e74c286d4b12b64736f6c63430008140033a2646970667358221220d85b02209b5e662567b343c33cc608f8373b6745e25c6f205afe3f74a144f9ba64736f6c63430008140033",
  "devdoc": {
    "kind": "dev",
    "methods": {},
    "version": 1
  },
  "userdoc": {
    "kind": "user",
    "methods": {},
    "version": 1
  },
  "storageLayout": {
    "storage": [],
    "types": null
  }
}