{
  "address": "0x87Be32d13dc85B517CD6cbD59e715445e068631f",
  "abi": [
    {
      "inputs": [
        {
          "internalType": "address",
          "name": "_admin",
          "type": "address"
        }
      ],
      "stateMutability": "nonpayable",
      "type": "constructor"
    },
    {
      "inputs": [],
      "name": "AccessControlBadConfirmation",
      "type": "error"
    },
    {
      "inputs": [
        {
          "internalType": "address",
          "name": "account",
          "type": "address"
        },
        {
          "internalType": "bytes32",
          "name": "neededRole",
          "type": "bytes32"
        }
      ],
      "name": "AccessControlUnauthorizedAccount",
      "type": "error"
    },
    {
      "anonymous": false,
      "inputs": [
        {
          "indexed": true,
          "internalType": "address",
          "name": "auditor",
          "type": "address"
        }
      ],
      "name": "AuditorAdded",
      "type": "event"
    },
    {
      "anonymous": false,
      "inputs": [
        {
          "indexed": true,
          "internalType": "bytes32",
          "name": "role",
          "type": "bytes32"
        },
        {
          "indexed": true,
          "internalType": "bytes32",
          "name": "previousAdminRole",
          "type": "bytes32"
        },
        {
          "indexed": true,
          "internalType": "bytes32",
          "name": "newAdminRole",
          "type": "bytes32"
        }
      ],
      "name": "RoleAdminChanged",
      "type": "event"
    },
    {
      "anonymous": false,
      "inputs": [
        {
          "indexed": true,
          "internalType": "bytes32",
          "name": "role",
          "type": "bytes32"
        },
        {
          "indexed": true,
          "internalType": "address",
          "name": "account",
          "type": "address"
        },
        {
          "indexed": true,
          "internalType": "address",
          "name": "sender",
          "type": "address"
        }
      ],
      "name": "RoleGranted",
      "type": "event"
    },
    {
      "anonymous": false,
      "inputs": [
        {
          "indexed": true,
          "internalType": "bytes32",
          "name": "role",
          "type": "bytes32"
        },
        {
          "indexed": true,
          "internalType": "address",
          "name": "account",
          "type": "address"
        },
        {
          "indexed": true,
          "internalType": "address",
          "name": "sender",
          "type": "address"
        }
      ],
      "name": "RoleRevoked",
      "type": "event"
    },
    {
      "anonymous": false,
      "inputs": [
        {
          "indexed": true,
          "internalType": "uint256",
          "name": "taskID",
          "type": "uint256"
        },
        {
          "indexed": false,
          "internalType": "string",
          "name": "name",
          "type": "string"
        }
      ],
      "name": "TaskAdded",
      "type": "event"
    },
    {
      "anonymous": false,
      "inputs": [
        {
          "indexed": true,
          "internalType": "address",
          "name": "userAddress",
          "type": "address"
        }
      ],
      "name": "UserAdded",
      "type": "event"
    },
    {
      "inputs": [],
      "name": "AUDITOR_ROLE",
      "outputs": [
        {
          "internalType": "bytes32",
          "name": "",
          "type": "bytes32"
        }
      ],
      "stateMutability": "view",
      "type": "function"
    },
    {
      "inputs": [],
      "name": "DEFAULT_ADMIN_ROLE",
      "outputs": [
        {
          "internalType": "bytes32",
          "name": "",
          "type": "bytes32"
        }
      ],
      "stateMutability": "view",
      "type": "function"
    },
    {
      "inputs": [],
      "name": "USER_ROLE",
      "outputs": [
        {
          "internalType": "bytes32",
          "name": "",
          "type": "bytes32"
        }
      ],
      "stateMutability": "view",
      "type": "function"
    },
    {
      "inputs": [
        {
          "internalType": "uint256",
          "name": "_taskID",
          "type": "uint256"
        }
      ],
      "name": "acceptTask",
      "outputs": [],
      "stateMutability": "nonpayable",
      "type": "function"
    },
    {
      "inputs": [
        {
          "internalType": "address",
          "name": "_auditorAddress",
          "type": "address"
        }
      ],
      "name": "addAuditor",
      "outputs": [],
      "stateMutability": "nonpayable",
      "type": "function"
    },
    {
      "inputs": [
        {
          "internalType": "address",
          "name": "_addressUser",
          "type": "address"
        }
      ],
      "name": "addUser",
      "outputs": [],
      "stateMutability": "nonpayable",
      "type": "function"
    },
    {
      "inputs": [],
      "name": "admin",
      "outputs": [
        {
          "internalType": "address",
          "name": "",
          "type": "address"
        }
      ],
      "stateMutability": "view",
      "type": "function"
    },
    {
      "inputs": [
        {
          "internalType": "uint256",
          "name": "",
          "type": "uint256"
        }
      ],
      "name": "auditors",
      "outputs": [
        {
          "internalType": "uint256",
          "name": "auditorID",
          "type": "uint256"
        },
        {
          "internalType": "address",
          "name": "auditorAddress",
          "type": "address"
        },
        {
          "internalType": "bool",
          "name": "block",
          "type": "bool"
        }
      ],
      "stateMutability": "view",
      "type": "function"
    },
    {
      "inputs": [
        {
          "internalType": "uint256",
          "name": "_auditorID",
          "type": "uint256"
        }
      ],
      "name": "blockAuditor",
      "outputs": [],
      "stateMutability": "nonpayable",
      "type": "function"
    },
    {
      "inputs": [
        {
          "internalType": "uint256",
          "name": "_taskID",
          "type": "uint256"
        },
        {
          "internalType": "string",
          "name": "_proof",
          "type": "string"
        }
      ],
      "name": "completedTask",
      "outputs": [],
      "stateMutability": "nonpayable",
      "type": "function"
    },
    {
      "inputs": [
        {
          "internalType": "string",
          "name": "_name",
          "type": "string"
        },
        {
          "internalType": "string",
          "name": "_description",
          "type": "string"
        },
        {
          "internalType": "string",
          "name": "_rules",
          "type": "string"
        }
      ],
      "name": "createTask",
      "outputs": [],
      "stateMutability": "payable",
      "type": "function"
    },
    {
      "inputs": [
        {
          "internalType": "string",
          "name": "_name",
          "type": "string"
        },
        {
          "internalType": "string",
          "name": "_description",
          "type": "string"
        },
        {
          "internalType": "string",
          "name": "_rules",
          "type": "string"
        },
        {
          "internalType": "address",
          "name": "_responsible",
          "type": "address"
        }
      ],
      "name": "createTaskWithResponsible",
      "outputs": [],
      "stateMutability": "payable",
      "type": "function"
    },
    {
      "inputs": [],
      "name": "getAllAuditors",
      "outputs": [
        {
          "components": [
            {
              "internalType": "uint256",
              "name": "auditorID",
              "type": "uint256"
            },
            {
              "internalType": "address",
              "name": "auditorAddress",
              "type": "address"
            },
            {
              "internalType": "bool",
              "name": "block",
              "type": "bool"
            }
          ],
          "internalType": "struct TaskContract.Auditor[]",
          "name": "",
          "type": "tuple[]"
        }
      ],
      "stateMutability": "view",
      "type": "function"
    },
    {
      "inputs": [],
      "name": "getAllTasks",
      "outputs": [
        {
          "components": [
            {
              "internalType": "uint256",
              "name": "taskID",
              "type": "uint256"
            },
            {
              "internalType": "string",
              "name": "name",
              "type": "string"
            },
            {
              "internalType": "string",
              "name": "description",
              "type": "string"
            },
            {
              "internalType": "string",
              "name": "rules",
              "type": "string"
            },
            {
              "internalType": "uint256",
              "name": "reward",
              "type": "uint256"
            },
            {
              "internalType": "address payable",
              "name": "responsible",
              "type": "address"
            },
            {
              "internalType": "bool",
              "name": "completed",
              "type": "bool"
            }
          ],
          "internalType": "struct TaskContract.Task[]",
          "name": "",
          "type": "tuple[]"
        }
      ],
      "stateMutability": "view",
      "type": "function"
    },
    {
      "inputs": [],
      "name": "getAllUsers",
      "outputs": [
        {
          "internalType": "address[]",
          "name": "",
          "type": "address[]"
        }
      ],
      "stateMutability": "view",
      "type": "function"
    },
    {
      "inputs": [
        {
          "internalType": "address",
          "name": "_auditorAddress",
          "type": "address"
        }
      ],
      "name": "getAuditorForAddress",
      "outputs": [
        {
          "internalType": "bool",
          "name": "",
          "type": "bool"
        }
      ],
      "stateMutability": "view",
      "type": "function"
    },
    {
      "inputs": [
        {
          "internalType": "uint256",
          "name": "_taskID",
          "type": "uint256"
        }
      ],
      "name": "getCompletedTask",
      "outputs": [
        {
          "components": [
            {
              "internalType": "uint256",
              "name": "taskCompletedID",
              "type": "uint256"
            },
            {
              "internalType": "uint256",
              "name": "taskID",
              "type": "uint256"
            },
            {
              "internalType": "string",
              "name": "proof",
              "type": "string"
            },
            {
              "internalType": "address",
              "name": "verifier",
              "type": "address"
            },
            {
              "internalType": "bool",
              "name": "verified",
              "type": "bool"
            },
            {
              "internalType": "bool",
              "name": "release",
              "type": "bool"
            }
          ],
          "internalType": "struct TaskContract.TaskCompleted",
          "name": "",
          "type": "tuple"
        }
      ],
      "stateMutability": "view",
      "type": "function"
    },
    {
      "inputs": [
        {
          "internalType": "bytes32",
          "name": "role",
          "type": "bytes32"
        }
      ],
      "name": "getRoleAdmin",
      "outputs": [
        {
          "internalType": "bytes32",
          "name": "",
          "type": "bytes32"
        }
      ],
      "stateMutability": "view",
      "type": "function"
    },
    {
      "inputs": [
        {
          "internalType": "uint256",
          "name": "_taskID",
          "type": "uint256"
        }
      ],
      "name": "getTask",
      "outputs": [
        {
          "internalType": "string",
          "name": "",
          "type": "string"
        },
        {
          "internalType": "string",
          "name": "",
          "type": "string"
        }
      ],
      "stateMutability": "view",
      "type": "function"
    },
    {
      "inputs": [],
      "name": "getTasksByResponsible",
      "outputs": [
        {
          "components": [
            {
              "internalType": "uint256",
              "name": "taskID",
              "type": "uint256"
            },
            {
              "internalType": "string",
              "name": "name",
              "type": "string"
            },
            {
              "internalType": "string",
              "name": "description",
              "type": "string"
            },
            {
              "internalType": "string",
              "name": "rules",
              "type": "string"
            },
            {
              "internalType": "uint256",
              "name": "reward",
              "type": "uint256"
            },
            {
              "internalType": "address payable",
              "name": "responsible",
              "type": "address"
            },
            {
              "internalType": "bool",
              "name": "completed",
              "type": "bool"
            }
          ],
          "internalType": "struct TaskContract.Task[]",
          "name": "",
          "type": "tuple[]"
        }
      ],
      "stateMutability": "view",
      "type": "function"
    },
    {
      "inputs": [],
      "name": "getTasksWithoutResponsible",
      "outputs": [
        {
          "components": [
            {
              "internalType": "uint256",
              "name": "taskID",
              "type": "uint256"
            },
            {
              "internalType": "string",
              "name": "name",
              "type": "string"
            },
            {
              "internalType": "string",
              "name": "description",
              "type": "string"
            },
            {
              "internalType": "string",
              "name": "rules",
              "type": "string"
            },
            {
              "internalType": "uint256",
              "name": "reward",
              "type": "uint256"
            },
            {
              "internalType": "address payable",
              "name": "responsible",
              "type": "address"
            },
            {
              "internalType": "bool",
              "name": "completed",
              "type": "bool"
            }
          ],
          "internalType": "struct TaskContract.Task[]",
          "name": "",
          "type": "tuple[]"
        }
      ],
      "stateMutability": "view",
      "type": "function"
    },
    {
      "inputs": [
        {
          "internalType": "address",
          "name": "_addressUser",
          "type": "address"
        }
      ],
      "name": "getUserForAddress",
      "outputs": [
        {
          "internalType": "bool",
          "name": "",
          "type": "bool"
        }
      ],
      "stateMutability": "view",
      "type": "function"
    },
    {
      "inputs": [
        {
          "internalType": "bytes32",
          "name": "role",
          "type": "bytes32"
        },
        {
          "internalType": "address",
          "name": "account",
          "type": "address"
        }
      ],
      "name": "grantRole",
      "outputs": [],
      "stateMutability": "nonpayable",
      "type": "function"
    },
    {
      "inputs": [
        {
          "internalType": "bytes32",
          "name": "role",
          "type": "bytes32"
        },
        {
          "internalType": "address",
          "name": "account",
          "type": "address"
        }
      ],
      "name": "hasRole",
      "outputs": [
        {
          "internalType": "bool",
          "name": "",
          "type": "bool"
        }
      ],
      "stateMutability": "view",
      "type": "function"
    },
    {
      "inputs": [
        {
          "internalType": "bytes32",
          "name": "role",
          "type": "bytes32"
        },
        {
          "internalType": "address",
          "name": "callerConfirmation",
          "type": "address"
        }
      ],
      "name": "renounceRole",
      "outputs": [],
      "stateMutability": "nonpayable",
      "type": "function"
    },
    {
      "inputs": [
        {
          "internalType": "bytes32",
          "name": "role",
          "type": "bytes32"
        },
        {
          "internalType": "address",
          "name": "account",
          "type": "address"
        }
      ],
      "name": "revokeRole",
      "outputs": [],
      "stateMutability": "nonpayable",
      "type": "function"
    },
    {
      "inputs": [
        {
          "internalType": "bytes4",
          "name": "interfaceId",
          "type": "bytes4"
        }
      ],
      "name": "supportsInterface",
      "outputs": [
        {
          "internalType": "bool",
          "name": "",
          "type": "bool"
        }
      ],
      "stateMutability": "view",
      "type": "function"
    },
    {
      "inputs": [],
      "name": "taskID",
      "outputs": [
        {
          "internalType": "uint256",
          "name": "",
          "type": "uint256"
        }
      ],
      "stateMutability": "view",
      "type": "function"
    },
    {
      "inputs": [
        {
          "internalType": "uint256",
          "name": "",
          "type": "uint256"
        }
      ],
      "name": "tasks",
      "outputs": [
        {
          "internalType": "uint256",
          "name": "taskID",
          "type": "uint256"
        },
        {
          "internalType": "string",
          "name": "name",
          "type": "string"
        },
        {
          "internalType": "string",
          "name": "description",
          "type": "string"
        },
        {
          "internalType": "string",
          "name": "rules",
          "type": "string"
        },
        {
          "internalType": "uint256",
          "name": "reward",
          "type": "uint256"
        },
        {
          "internalType": "address payable",
          "name": "responsible",
          "type": "address"
        },
        {
          "internalType": "bool",
          "name": "completed",
          "type": "bool"
        }
      ],
      "stateMutability": "view",
      "type": "function"
    },
    {
      "inputs": [
        {
          "internalType": "uint256",
          "name": "_auditorID",
          "type": "uint256"
        }
      ],
      "name": "unlockAuditor",
      "outputs": [],
      "stateMutability": "nonpayable",
      "type": "function"
    },
    {
      "inputs": [
        {
          "internalType": "uint256",
          "name": "",
          "type": "uint256"
        }
      ],
      "name": "users",
      "outputs": [
        {
          "internalType": "address",
          "name": "",
          "type": "address"
        }
      ],
      "stateMutability": "view",
      "type": "function"
    },
    {
      "inputs": [
        {
          "internalType": "uint256",
          "name": "_taskCompletedID",
          "type": "uint256"
        },
        {
          "internalType": "bool",
          "name": "_verified",
          "type": "bool"
        }
      ],
      "name": "verifiedTask",
      "outputs": [],
      "stateMutability": "nonpayable",
      "type": "function"
    }
  ],
  "transactionHash": "0xc56fd07caeea4a7542858f3890b2ff1ebab8e91437adbbe6dc5ec369e3d2e7fe",
  "args": [
    "0xD2692F9df925D18D527ABe8b3d99EE9E9C8d75AE"
  ],
  "numDeployments": 1,
  "solcInputHash": "6d2c237f78e52f4c512258809940648f",
  "bytecode": "0x608060405260006001556000600255600060035560006004553480156200002557600080fd5b50604051620036d9380380620036d9833981016040819052620000489162000127565b600580546001600160a01b0319166001600160a01b0383161790556200007060008262000078565b505062000159565b6000828152602081815260408083206001600160a01b038516845290915281205460ff166200011d576000838152602081815260408083206001600160a01b03861684529091529020805460ff19166001179055620000d43390565b6001600160a01b0316826001600160a01b0316847f2f8788117e7eff1d82e926ec794901d17c78024a50270940304540a733656f0d60405160405180910390a450600162000121565b5060005b92915050565b6000602082840312156200013a57600080fd5b81516001600160a01b03811681146200015257600080fd5b9392505050565b61357080620001696000396000f3fe6080604052600436106101e35760003560e01c80637d4d91c011610102578063d547741f11610095578063f136e3f611610064578063f136e3f614610622578063f4bdfff414610637578063f72dcadf14610657578063f851a4401461066c57600080fd5b8063d547741f146105a0578063da4a3009146105c0578063e2842d79146105e0578063e429cef11461060257600080fd5b8063b6ef730a116100d1578063b6ef730a14610544578063c8da44551461055a578063d2344f0a1461056d578063d50f42951461058057600080fd5b80637d4d91c0146104af5780638d977672146104dc57806391d148541461050f578063a217fddf1461052f57600080fd5b806336568abe1161017a5780634dcbb8ee116101495780634dcbb8ee146104295780636e1d616e1461044b578063772a3fc31461046d578063779900b41461048d57600080fd5b806336568abe1461037b578063365b98b21461039b578063421b2d8b146103e9578063488f0c911461040957600080fd5b80631d65e77e116101b65780631d65e77e146102dd57806323d8263d1461030b578063248a9ca31461032b5780632f2ff15d1461035b57600080fd5b806301ffc9a7146101e8578063131191611461021d5780631b8b444c1461024d5780631bf6912d146102bb575b600080fd5b3480156101f457600080fd5b50610208610203366004612cf6565b61068c565b60405190151581526020015b60405180910390f35b34801561022957600080fd5b5061023f60008051602061351b83398151915281565b604051908152602001610214565b34801561025957600080fd5b50610296610268366004612d27565b600760205260009081526040902080546001909101546001600160a01b03811690600160a01b900460ff1683565b604080519384526001600160a01b039092166020840152151590820152606001610214565b3480156102c757600080fd5b506102db6102d6366004612d27565b6106c3565b005b3480156102e957600080fd5b506102fd6102f8366004612d27565b6108b8565b604051610214929190612d86565b34801561031757600080fd5b506102db610326366004612db4565b6109f9565b34801561033757600080fd5b5061023f610346366004612d27565b60009081526020819052604090206001015490565b34801561036757600080fd5b506102db610376366004612e05565b610cf7565b34801561038757600080fd5b506102db610396366004612e05565b610d1c565b3480156103a757600080fd5b506103d16103b6366004612d27565b6008602052600090815260409020546001600160a01b031681565b6040516001600160a01b039091168152602001610214565b3480156103f557600080fd5b506102db610404366004612e31565b610d54565b34801561041557600080fd5b506102db610424366004612d27565b610f36565b34801561043557600080fd5b5061043e610fe7565b6040516102149190612e4c565b34801561045757600080fd5b5061023f6000805160206134fb83398151915281565b34801561047957600080fd5b50610208610488366004612e31565b6110e2565b34801561049957600080fd5b506104a2611137565b6040516102149190612eb0565b3480156104bb57600080fd5b506104cf6104ca366004612d27565b61142a565b6040516102149190612f85565b3480156104e857600080fd5b506104fc6104f7366004612d27565b611602565b6040516102149796959493929190612feb565b34801561051b57600080fd5b5061020861052a366004612e05565b6117e4565b34801561053b57600080fd5b5061023f600081565b34801561055057600080fd5b5061023f60015481565b6102db6105683660046130f8565b61180d565b6102db61057b366004613191565b611bb1565b34801561058c57600080fd5b506102db61059b366004612d27565b611e1a565b3480156105ac57600080fd5b506102db6105bb366004612e05565b611ec5565b3480156105cc57600080fd5b506102db6105db366004613219565b611eea565b3480156105ec57600080fd5b506105f561214e565b6040516102149190613260565b34801561060e57600080fd5b506102db61061d366004612e31565b6121ff565b34801561062e57600080fd5b506104a2612432565b34801561064357600080fd5b50610208610652366004612e31565b61275d565b34801561066357600080fd5b506104a26127ce565b34801561067857600080fd5b506005546103d1906001600160a01b031681565b60006001600160e01b03198216637965db0b60e01b14806106bd57506301ffc9a760e01b6001600160e01b03198316145b92915050565b6005546001600160a01b031633036107155760405162461bcd60e51b815260206004820152601060248201526f20b2323932b9b99034b99030b236b4b760811b60448201526064015b60405180910390fd5b6000818152600660205260409020600401546107435760405162461bcd60e51b815260040161070c906132ad565b6000818152600660205260409020600501546001600160a01b0316156107b95760405162461bcd60e51b815260206004820152602560248201527f5461736b206d7573742068617665206120726573706f6e7369626c65206173736044820152641a59db995960da1b606482015260840161070c565b6107c2336110e2565b1561080f5760405162461bcd60e51b815260206004820181905260248201527f5468652061756469746f722063616e6e6f742074616b65206f6e207461736b73604482015260640161070c565b6108183361275d565b6108955761083460008051602061351b83398151915233612b67565b5060038054600090815260086020526040812080546001600160a01b0319163317905581549190610864836132e4565b909155505060405133907f19ef9a4877199f89440a26acb26895ec02ed86f2df1aeaa90dc18041b892f71f90600090a25b600090815260066020526040902060050180546001600160a01b03191633179055565b600081815260066020526040902060018101805460609283929091600283019082906108e39061330b565b80601f016020809104026020016040519081016040528092919081815260200182805461090f9061330b565b801561095c5780601f106109315761010080835404028352916020019161095c565b820191906000526020600020905b81548152906001019060200180831161093f57829003601f168201915b5050505050915080805461096f9061330b565b80601f016020809104026020016040519081016040528092919081815260200182805461099b9061330b565b80156109e85780601f106109bd576101008083540402835291602001916109e8565b820191906000526020600020905b8154815290600101906020018083116109cb57829003601f168201915b505050505090509250925050915091565b610a046000336117e4565b80610a225750610a226000805160206134fb833981519152336117e4565b610a3e5760405162461bcd60e51b815260040161070c9061333f565b60008281526009602052604081206002018054610a5a9061330b565b80601f0160208091040260200160405190810160405280929190818152602001828054610a869061330b565b8015610ad35780601f10610aa857610100808354040283529160200191610ad3565b820191906000526020600020905b815481529060010190602001808311610ab657829003601f168201915b505050505090506000815111610b235760405162461bcd60e51b815260206004820152601560248201527450726f6f662063616e6e6f7420626520656d70747960581b604482015260640161070c565b60008381526009602090815260408083206001908101548085526006909352908320018054919291610b549061330b565b905011610b735760405162461bcd60e51b815260040161070c906132ad565b6000818152600660205260409020600501546001600160a01b0316610bda5760405162461bcd60e51b815260206004820152601760248201527f4e6f20726573706f6e7369626c652061737369676e6564000000000000000000604482015260640161070c565b8215610ca15760008481526009602090815260408083206003018054600160a01b6001600160a81b03199091163360ff60a01b199081169190911782179092558585526006909352818420600481015460059091018054928316909417909355905191926001600160a01b0390911691829084908381818185875af1925050503d8060008114610c86576040519150601f19603f3d011682016040523d82523d6000602084013e610c8b565b606091505b5050905080610c9957600080fd5b505050610cf1565b6000848152600960209081526040808320600301805460ff60a01b19600161ff0160a01b03199091163317600160a81b171690558383526006909152902060050180546001600160a01b03191690555b50505050565b600082815260208190526040902060010154610d1281612bf9565b610cf18383612b67565b6001600160a01b0381163314610d455760405163334bd91960e11b815260040160405180910390fd5b610d4f8282612c06565b505050565b6001600160a01b038116610d7a5760405162461bcd60e51b815260040161070c90613380565b6005546001600160a01b03808316911603610dce5760405162461bcd60e51b815260206004820152601460248201527320b236b4b71031b0b73737ba103132903ab9b2b960611b604482015260640161070c565b610dd96000336117e4565b80610df75750610df76000805160206134fb833981519152336117e4565b610e135760405162461bcd60e51b815260040161070c9061333f565b610e1c8161275d565b15610e5f5760405162461bcd60e51b81526020600482015260136024820152725573657220616c72656164792065786973747360681b604482015260640161070c565b610e68816110e2565b15610ea95760405162461bcd60e51b815260206004820152601160248201527020b23932b9b99034b99030bab234ba37b960791b604482015260640161070c565b610ec160008051602061351b83398151915282612b67565b5060038054600090815260086020526040812080546001600160a01b0319166001600160a01b03851617905581549190610efa836132e4565b90915550506040516001600160a01b038216907f19ef9a4877199f89440a26acb26895ec02ed86f2df1aeaa90dc18041b892f71f90600090a250565b6000610f4181612bf9565b6000828152600760205260409020600101546001600160a01b0316610fa15760405162461bcd60e51b8152602060048201526016602482015275105d591a5d1bdc88191bd95cc81b9bdd08195e1a5cdd60521b604482015260640161070c565b6000828152600760205260409020600101805460ff60a01b198116600160a01b17909155610d4f906000805160206134fb833981519152906001600160a01b0316612c06565b6060600060025467ffffffffffffffff81111561100657611006613055565b60405190808252806020026020018201604052801561105157816020015b60408051606081018252600080825260208083018290529282015282526000199092019101816110245790505b50905060005b6002548110156110dc5760008181526007602090815260409182902082516060810184528154815260018201546001600160a01b03811693820193909352600160a01b90920460ff1615159282019290925283518490849081106110bd576110bd6133c3565b60200260200101819052505080806110d4906132e4565b915050611057565b50919050565b6000805b600254811161112e576000818152600760205260409020600101546001600160a01b0380851691160361111c5750600192915050565b80611126816132e4565b9150506110e6565b50600092915050565b60606111446000336117e4565b8061116257506111626000805160206134fb833981519152336117e4565b61117e5760405162461bcd60e51b815260040161070c9061333f565b600060015467ffffffffffffffff81111561119b5761119b613055565b6040519080825280602002602001820160405280156111d457816020015b6111c1612cae565b8152602001906001900390816111b95790505b50905060005b6001548110156110dc576000600660008381526020019081526020016000209050806040518060e0016040529081600082015481526020016001820180546112219061330b565b80601f016020809104026020016040519081016040528092919081815260200182805461124d9061330b565b801561129a5780601f1061126f5761010080835404028352916020019161129a565b820191906000526020600020905b81548152906001019060200180831161127d57829003601f168201915b505050505081526020016002820180546112b39061330b565b80601f01602080910402602001604051908101604052809291908181526020018280546112df9061330b565b801561132c5780601f106113015761010080835404028352916020019161132c565b820191906000526020600020905b81548152906001019060200180831161130f57829003601f168201915b505050505081526020016003820180546113459061330b565b80601f01602080910402602001604051908101604052809291908181526020018280546113719061330b565b80156113be5780601f10611393576101008083540402835291602001916113be565b820191906000526020600020905b8154815290600101906020018083116113a157829003601f168201915b5050509183525050600482015460208201526005909101546001600160a01b0381166040830152600160a01b900460ff161515606090910152835184908490811061140b5761140b6133c3565b6020026020010181905250508080611422906132e4565b9150506111da565b6114706040518060c0016040528060008152602001600081526020016060815260200160006001600160a01b031681526020016000151581526020016000151581525090565b60005b6004548110156115ab5760008181526009602052604090206001015483900361159957600960008281526020019081526020016000206040518060c001604052908160008201548152602001600182015481526020016002820180546114d89061330b565b80601f01602080910402602001604051908101604052809291908181526020018280546115049061330b565b80156115515780601f1061152657610100808354040283529160200191611551565b820191906000526020600020905b81548152906001019060200180831161153457829003601f168201915b5050509183525050600391909101546001600160a01b038116602083015260ff600160a01b8204811615156040840152600160a81b9091041615156060909101529392505050565b806115a3816132e4565b915050611473565b506040518060c0016040528060045481526020016000815260200160405180602001604052806000815250815260200160006001600160a01b03168152602001600015158152602001600015158152509050919050565b600660205260009081526040902080546001820180549192916116249061330b565b80601f01602080910402602001604051908101604052809291908181526020018280546116509061330b565b801561169d5780601f106116725761010080835404028352916020019161169d565b820191906000526020600020905b81548152906001019060200180831161168057829003601f168201915b5050505050908060020180546116b29061330b565b80601f01602080910402602001604051908101604052809291908181526020018280546116de9061330b565b801561172b5780601f106117005761010080835404028352916020019161172b565b820191906000526020600020905b81548152906001019060200180831161170e57829003601f168201915b5050505050908060030180546117409061330b565b80601f016020809104026020016040519081016040528092919081815260200182805461176c9061330b565b80156117b95780601f1061178e576101008083540402835291602001916117b9565b820191906000526020600020905b81548152906001019060200180831161179c57829003601f168201915b5050505060048301546005909301549192916001600160a01b0381169150600160a01b900460ff1687565b6000918252602082815260408084206001600160a01b0393909316845291905290205460ff1690565b600061181881612bf9565b60008551116118655760405162461bcd60e51b81526020600482015260196024820152785461736b206e616d652063616e6e6f7420626520656d70747960381b604482015260640161070c565b60008451116118b65760405162461bcd60e51b815260206004820181905260248201527f5461736b206465736372697074696f6e2063616e6e6f7420626520656d707479604482015260640161070c565b60008351116119075760405162461bcd60e51b815260206004820152601a60248201527f5461736b2072756c65732063616e6e6f7420626520656d707479000000000000604482015260640161070c565b600034116119535760405162461bcd60e51b815260206004820152601960248201527810481c995dd85c99081b5d5cdd081899481c1c9bdd9a591959603a1b604482015260640161070c565b6005546001600160a01b038084169116036119a35760405162461bcd60e51b815260206004820152601060248201526f20b2323932b9b99034b99030b236b4b760811b604482015260640161070c565b6119ac826110e2565b156119ed5760405162461bcd60e51b815260206004820152601160248201527020b23932b9b99034b99030bab234ba37b960791b604482015260640161070c565b6040805160e0810182526001805480835260208084018a81528486018a9052606085018990523460808601526001600160a01b03881660a0860152600060c08601819052928352600690915293902082518155925191929190820190611a539082613427565b5060408201516002820190611a689082613427565b5060608201516003820190611a7d9082613427565b506080820151600482015560a08201516005909101805460c0909301511515600160a01b026001600160a81b03199093166001600160a01b0390921691909117919091179055611acc8261275d565b611b5b57611ae860008051602061351b83398151915283612b67565b5060038054600090815260086020526040812080546001600160a01b0319166001600160a01b03861617905581549190611b21836132e4565b90915550506040516001600160a01b038316907f19ef9a4877199f89440a26acb26895ec02ed86f2df1aeaa90dc18041b892f71f90600090a25b60018054906000611b6b836132e4565b91905055506001547f2ee7ce8bac091b03a0c391c07ee88a246bdd72bdc6b1ef1ce4d99220595d32c586604051611ba291906134e7565b60405180910390a25050505050565b6000611bbc81612bf9565b6000845111611c095760405162461bcd60e51b81526020600482015260196024820152785461736b206e616d652063616e6e6f7420626520656d70747960381b604482015260640161070c565b6000835111611c5a5760405162461bcd60e51b815260206004820181905260248201527f5461736b206465736372697074696f6e2063616e6e6f7420626520656d707479604482015260640161070c565b6000825111611cab5760405162461bcd60e51b815260206004820152601a60248201527f5461736b2072756c65732063616e6e6f7420626520656d707479000000000000604482015260640161070c565b60003411611cf75760405162461bcd60e51b815260206004820152601960248201527810481c995dd85c99081b5d5cdd081899481c1c9bdd9a591959603a1b604482015260640161070c565b6040805160e08101825260018054808352602080840189815284860189905260608501889052346080860152600060a0860181905260c08601819052928352600690915293902082518155925191929190820190611d559082613427565b5060408201516002820190611d6a9082613427565b5060608201516003820190611d7f9082613427565b506080820151600482015560a08201516005909101805460c0909301511515600160a01b026001600160a81b03199093166001600160a01b039092169190911791909117905560018054906000611dd5836132e4565b91905055506001547f2ee7ce8bac091b03a0c391c07ee88a246bdd72bdc6b1ef1ce4d99220595d32c585604051611e0c91906134e7565b60405180910390a250505050565b6000611e2581612bf9565b6000828152600760205260409020600101546001600160a01b0316611e855760405162461bcd60e51b8152602060048201526016602482015275105d591a5d1bdc88191bd95cc81b9bdd08195e1a5cdd60521b604482015260640161070c565b6000828152600760205260409020600101805460ff60a01b198116909155610d4f906000805160206134fb833981519152906001600160a01b0316612b67565b600082815260208190526040902060010154611ee081612bf9565b610cf18383612c06565b60008051602061351b833981519152611f0281612bf9565b600083815260066020526040902060040154611f305760405162461bcd60e51b815260040161070c906132ad565b600083815260066020526040902060050154600160a01b900460ff1615611f995760405162461bcd60e51b815260206004820152601f60248201527f5461736b2068617320616c7265616479206265656e20636f6d706c6574656400604482015260640161070c565b6000825111611fe25760405162461bcd60e51b815260206004820152601560248201527450726f6f662063616e6e6f7420626520656d70747960581b604482015260640161070c565b60005b6004548110156120825760008181526009602052604090206001015484900361207057600081815260096020526040902060030154600160a81b900460ff166120705760405162461bcd60e51b815260206004820152601860248201527f546865207461736b206973206e6f742072656c65617365640000000000000000604482015260640161070c565b8061207a816132e4565b915050611fe5565b506040805160c08101825260045480825260208083018781528385018781526000606086018190526080860181905260a0860181905293845260099092529390912082518155925160018401555190919060028201906120e29082613427565b50606082015160039091018054608084015160a0909401511515600160a81b0260ff60a81b19941515600160a01b026001600160a81b03199092166001600160a01b0390941693909317179290921617905560048054906000612144836132e4565b9190505550505050565b6060600060035467ffffffffffffffff81111561216d5761216d613055565b604051908082528060200260200182016040528015612196578160200160208202803683370190505b50905060005b6003548110156110dc5760008181526008602052604090205482516001600160a01b03909116908390839081106121d5576121d56133c3565b6001600160a01b0390921660209283029190910190910152806121f7816132e4565b91505061219c565b600061220a81612bf9565b6001600160a01b03821661226f5760405162461bcd60e51b815260206004820152602660248201527f41756469746f7220616464726573732063616e6e6f74206265207a65726f206160448201526564647265737360d01b606482015260840161070c565b6005546001600160a01b038084169116036122cc5760405162461bcd60e51b815260206004820152601760248201527f41646d696e2063616e6e6f742062652061756469746f72000000000000000000604482015260640161070c565b6122d5826110e2565b1561231a5760405162461bcd60e51b8152602060048201526015602482015274105d591a5d1bdc88185b1c9958591e48195e1a5cdd605a1b604482015260640161070c565b6123238261275d565b156123665760405162461bcd60e51b81526020600482015260136024820152725573657220616c72656164792065786973747360681b604482015260640161070c565b604080516060810182526002548082526001600160a01b0380861660208085019182526000858701818152948152600790915294909420925183559251600192909201805491511515600160a01b026001600160a81b031990921692909316919091171790556123e46000805160206134fb83398151915283612b67565b50600280549060006123f5836132e4565b90915550506040516001600160a01b038316907f2c31044378cc14466459f09320dd4057d7ad6e99b194c0800c78227383a2529690600090a25050565b606060008060005b600154811015612483576000818152600660205260409020600501546001600160a01b0316612471578261246d816132e4565b9350505b8061247b816132e4565b91505061243a565b5060008267ffffffffffffffff81111561249f5761249f613055565b6040519080825280602002602001820160405280156124d857816020015b6124c5612cae565b8152602001906001900390816124bd5790505b50905060005b600154811015612755576000818152600660205260409020600501546001600160a01b031661274357600660008281526020019081526020016000206040518060e00160405290816000820154815260200160018201805461253f9061330b565b80601f016020809104026020016040519081016040528092919081815260200182805461256b9061330b565b80156125b85780601f1061258d576101008083540402835291602001916125b8565b820191906000526020600020905b81548152906001019060200180831161259b57829003601f168201915b505050505081526020016002820180546125d19061330b565b80601f01602080910402602001604051908101604052809291908181526020018280546125fd9061330b565b801561264a5780601f1061261f5761010080835404028352916020019161264a565b820191906000526020600020905b81548152906001019060200180831161262d57829003601f168201915b505050505081526020016003820180546126639061330b565b80601f016020809104026020016040519081016040528092919081815260200182805461268f9061330b565b80156126dc5780601f106126b1576101008083540402835291602001916126dc565b820191906000526020600020905b8154815290600101906020018083116126bf57829003601f168201915b5050509183525050600482015460208201526005909101546001600160a01b0381166040830152600160a01b900460ff1615156060909101528251839085908110612729576127296133c3565b6020026020010181905250828061273f906132e4565b9350505b8061274d816132e4565b9150506124de565b509392505050565b60006001600160a01b0382166127855760405162461bcd60e51b815260040161070c90613380565b60005b60035481101561112e576000818152600860205260409020546001600160a01b038085169116036127bc5750600192915050565b806127c6816132e4565b915050612788565b606060008051602061351b8339815191526127e881612bf9565b336128355760405162461bcd60e51b815260206004820152601a60248201527f53656e6465722061646472657373206973207265717569726564000000000000604482015260640161070c565b6000805b60015481101561288657600081815260066020526040902060050154336001600160a01b03909116036128745781612870816132e4565b9250505b8061287e816132e4565b915050612839565b5060008167ffffffffffffffff8111156128a2576128a2613055565b6040519080825280602002602001820160405280156128db57816020015b6128c8612cae565b8152602001906001900390816128c05790505b5090506000805b600154811015612b5d57600081815260066020526040902060050154336001600160a01b0390911603612b4b57600660008281526020019081526020016000206040518060e0016040529081600082015481526020016001820180546129479061330b565b80601f01602080910402602001604051908101604052809291908181526020018280546129739061330b565b80156129c05780601f10612995576101008083540402835291602001916129c0565b820191906000526020600020905b8154815290600101906020018083116129a357829003601f168201915b505050505081526020016002820180546129d99061330b565b80601f0160208091040260200160405190810160405280929190818152602001828054612a059061330b565b8015612a525780601f10612a2757610100808354040283529160200191612a52565b820191906000526020600020905b815481529060010190602001808311612a3557829003601f168201915b50505050508152602001600382018054612a6b9061330b565b80601f0160208091040260200160405190810160405280929190818152602001828054612a979061330b565b8015612ae45780601f10612ab957610100808354040283529160200191612ae4565b820191906000526020600020905b815481529060010190602001808311612ac757829003601f168201915b5050509183525050600482015460208201526005909101546001600160a01b0381166040830152600160a01b900460ff1615156060909101528351849084908110612b3157612b316133c3565b60200260200101819052508180612b47906132e4565b9250505b80612b55816132e4565b9150506128e2565b5090935050505090565b6000612b7383836117e4565b612bf1576000838152602081815260408083206001600160a01b03861684529091529020805460ff19166001179055612ba93390565b6001600160a01b0316826001600160a01b0316847f2f8788117e7eff1d82e926ec794901d17c78024a50270940304540a733656f0d60405160405180910390a45060016106bd565b5060006106bd565b612c038133612c71565b50565b6000612c1283836117e4565b15612bf1576000838152602081815260408083206001600160a01b0386168085529252808320805460ff1916905551339286917ff6391f5c32d9c69d2a47ea670b442974b53935d1edc7fd64eb21e047a839171b9190a45060016106bd565b612c7b82826117e4565b612caa5760405163e2517d3f60e01b81526001600160a01b03821660048201526024810183905260440161070c565b5050565b6040518060e00160405280600081526020016060815260200160608152602001606081526020016000815260200160006001600160a01b031681526020016000151581525090565b600060208284031215612d0857600080fd5b81356001600160e01b031981168114612d2057600080fd5b9392505050565b600060208284031215612d3957600080fd5b5035919050565b6000815180845260005b81811015612d6657602081850181015186830182015201612d4a565b506000602082860101526020601f19601f83011685010191505092915050565b604081526000612d996040830185612d40565b8281036020840152612dab8185612d40565b95945050505050565b60008060408385031215612dc757600080fd5b8235915060208301358015158114612dde57600080fd5b809150509250929050565b80356001600160a01b0381168114612e0057600080fd5b919050565b60008060408385031215612e1857600080fd5b82359150612e2860208401612de9565b90509250929050565b600060208284031215612e4357600080fd5b612d2082612de9565b602080825282518282018190526000919060409081850190868401855b82811015612ea357815180518552868101516001600160a01b03168786015285015115158585015260609093019290850190600101612e69565b5091979650505050505050565b60006020808301818452808551808352604092508286019150828160051b87010184880160005b83811015612f7757603f19898403018552815160e08151855288820151818a870152612f0582870182612d40565b9150508782015185820389870152612f1d8282612d40565b91505060608083015186830382880152612f378382612d40565b6080858101519089015260a0808601516001600160a01b03169089015260c094850151151594909701939093525050509386019390860190600101612ed7565b509098975050505050505050565b6020815281516020820152602082015160408201526000604083015160c06060840152612fb560e0840182612d40565b905060018060a01b0360608501511660808401526080840151151560a084015260a0840151151560c08401528091505092915050565b87815260e06020820152600061300460e0830189612d40565b82810360408401526130168189612d40565b9050828103606084015261302a8188612d40565b608084019690965250506001600160a01b039290921660a0830152151560c090910152949350505050565b634e487b7160e01b600052604160045260246000fd5b600082601f83011261307c57600080fd5b813567ffffffffffffffff8082111561309757613097613055565b604051601f8301601f19908116603f011681019082821181831017156130bf576130bf613055565b816040528381528660208588010111156130d857600080fd5b836020870160208301376000602085830101528094505050505092915050565b6000806000806080858703121561310e57600080fd5b843567ffffffffffffffff8082111561312657600080fd5b6131328883890161306b565b9550602087013591508082111561314857600080fd5b6131548883890161306b565b9450604087013591508082111561316a57600080fd5b506131778782880161306b565b92505061318660608601612de9565b905092959194509250565b6000806000606084860312156131a657600080fd5b833567ffffffffffffffff808211156131be57600080fd5b6131ca8783880161306b565b945060208601359150808211156131e057600080fd5b6131ec8783880161306b565b9350604086013591508082111561320257600080fd5b5061320f8682870161306b565b9150509250925092565b6000806040838503121561322c57600080fd5b82359150602083013567ffffffffffffffff81111561324a57600080fd5b6132568582860161306b565b9150509250929050565b6020808252825182820181905260009190848201906040850190845b818110156132a15783516001600160a01b03168352928401929184019160010161327c565b50909695505050505050565b60208082526017908201527f546865207461736b20646f6573206e6f74206578697374000000000000000000604082015260600190565b60006001820161330457634e487b7160e01b600052601160045260246000fd5b5060010190565b600181811c9082168061331f57607f821691505b6020821081036110dc57634e487b7160e01b600052602260045260246000fd5b60208082526021908201527f43616c6c6572206973206e6f7420616e2061646d696e206f722061756469746f6040820152603960f91b606082015260800190565b60208082526023908201527f5573657220616464726573732063616e6e6f74206265207a65726f206164647260408201526265737360e81b606082015260800190565b634e487b7160e01b600052603260045260246000fd5b601f821115610d4f57600081815260208120601f850160051c810160208610156134005750805b601f850160051c820191505b8181101561341f5782815560010161340c565b505050505050565b815167ffffffffffffffff81111561344157613441613055565b6134558161344f845461330b565b846133d9565b602080601f83116001811461348a57600084156134725750858301515b600019600386901b1c1916600185901b17855561341f565b600085815260208120601f198616915b828110156134b95788860151825594840194600190910190840161349a565b50858210156134d75787850151600019600388901b60f8161c191681555b5050505050600190811b01905550565b602081526000612d206020830184612d4056fe59a1c48e5837ad7a7f3dcedcbe129bf3249ec4fbf651fd4f5e2600ead39fe2f514823911f2da1b49f045a0929a60b8c1f2a7fc8c06c7284ca3e8ab4e193a08c8a264697066735822122022e67eb0d1aec3016dbfb397996610af27ebe7524f551419418697aa4ed0999364736f6c63430008140033",
  "devdoc": {
    "errors": {
      "AccessControlBadConfirmation()": [
        {
          "details": "The caller of a function is not the expected one. NOTE: Don't confuse with {AccessControlUnauthorizedAccount}."
        }
      ],
      "AccessControlUnauthorizedAccount(address,bytes32)": [
        {
          "details": "The `account` is missing a role."
        }
      ]
    },
    "events": {
      "RoleAdminChanged(bytes32,bytes32,bytes32)": {
        "details": "Emitted when `newAdminRole` is set as ``role``'s admin role, replacing `previousAdminRole` `DEFAULT_ADMIN_ROLE` is the starting admin for all roles, despite {RoleAdminChanged} not being emitted signaling this."
      },
      "RoleGranted(bytes32,address,address)": {
        "details": "Emitted when `account` is granted `role`. `sender` is the account that originated the contract call, an admin role bearer except when using {AccessControl-_setupRole}."
      },
      "RoleRevoked(bytes32,address,address)": {
        "details": "Emitted when `account` is revoked `role`. `sender` is the account that originated the contract call:   - if using `revokeRole`, it is the admin role bearer   - if using `renounceRole`, it is the role bearer (i.e. `account`)"
      }
    },
    "kind": "dev",
    "methods": {
      "acceptTask(uint256)": {
        "params": {
          "_taskID": "- The ID of the task to be accepted."
        }
      },
      "addAuditor(address)": {
        "params": {
          "_auditorAddress": "- The address of the auditor to be added."
        }
      },
      "addUser(address)": {
        "params": {
          "_addressUser": "- Address of the user to be added."
        }
      },
      "blockAuditor(uint256)": {
        "params": {
          "_auditorID": "- The ID of the auditor to be blocked."
        }
      },
      "completedTask(uint256,string)": {
        "params": {
          "_proof": "- The proof of task completion.",
          "_taskID": "- The ID of the task to mark as completed."
        }
      },
      "createTask(string,string,string)": {
        "params": {
          "_description": "- A brief description of the task.",
          "_name": "- The name of the task.",
          "_rules": "- The rules and guidelines for the task."
        }
      },
      "createTaskWithResponsible(string,string,string,address)": {
        "params": {
          "_description": "- A brief description of the task.",
          "_name": "- The name of the task.",
          "_responsible": "- The address responsible for the task.",
          "_rules": "- The rules and guidelines for the task."
        }
      },
      "getAllAuditors()": {
        "returns": {
          "_0": "Auditor[] memory - An array containing all auditors."
        }
      },
      "getAllTasks()": {
        "returns": {
          "_0": "Task[] memory - An array containing all tasks."
        }
      },
      "getAllUsers()": {
        "returns": {
          "_0": "address[] memory - An array containing all user addresses."
        }
      },
      "getAuditorForAddress(address)": {
        "params": {
          "_auditorAddress": "- The address to be checked."
        },
        "returns": {
          "_0": "bool - True if the address is an auditor, false otherwise."
        }
      },
      "getCompletedTask(uint256)": {
        "params": {
          "_taskID": "- The ID of the task to retrieve."
        },
        "returns": {
          "_0": "TaskCompleted memory - The completed task corresponding to the given task ID."
        }
      },
      "getRoleAdmin(bytes32)": {
        "details": "Returns the admin role that controls `role`. See {grantRole} and {revokeRole}. To change a role's admin, use {_setRoleAdmin}."
      },
      "getTask(uint256)": {
        "params": {
          "_taskID": "- The ID of the task to retrieve."
        },
        "returns": {
          "_0": "(string memory, string memory) - The name and description of the task."
        }
      },
      "getTasksByResponsible()": {
        "returns": {
          "_0": "Task[] memory - An array containing tasks assigned to the caller."
        }
      },
      "getTasksWithoutResponsible()": {
        "returns": {
          "_0": "Task[] memory - An array containing tasks without a responsible address."
        }
      },
      "getUserForAddress(address)": {
        "params": {
          "_addressUser": "- The address to be checked."
        },
        "returns": {
          "_0": "bool - True if the address is a user, false otherwise."
        }
      },
      "grantRole(bytes32,address)": {
        "details": "Grants `role` to `account`. If `account` had not been already granted `role`, emits a {RoleGranted} event. Requirements: - the caller must have ``role``'s admin role. May emit a {RoleGranted} event."
      },
      "hasRole(bytes32,address)": {
        "details": "Returns `true` if `account` has been granted `role`."
      },
      "renounceRole(bytes32,address)": {
        "details": "Revokes `role` from the calling account. Roles are often managed via {grantRole} and {revokeRole}: this function's purpose is to provide a mechanism for accounts to lose their privileges if they are compromised (such as when a trusted device is misplaced). If the calling account had been revoked `role`, emits a {RoleRevoked} event. Requirements: - the caller must be `callerConfirmation`. May emit a {RoleRevoked} event."
      },
      "revokeRole(bytes32,address)": {
        "details": "Revokes `role` from `account`. If `account` had been granted `role`, emits a {RoleRevoked} event. Requirements: - the caller must have ``role``'s admin role. May emit a {RoleRevoked} event."
      },
      "supportsInterface(bytes4)": {
        "details": "See {IERC165-supportsInterface}."
      },
      "unlockAuditor(uint256)": {
        "params": {
          "_auditorID": "- The ID of the auditor to be unlocked."
        }
      },
      "verifiedTask(uint256,bool)": {
        "params": {
          "_taskCompletedID": "- The ID of the completed task to verify.",
          "_verified": "- Boolean indicating whether the task is verified."
        }
      }
    },
    "version": 1
  },
  "userdoc": {
    "kind": "user",
    "methods": {
      "acceptTask(uint256)": {
        "notice": "Allows a user to accept a task by assigning themselves as the responsible party. Ensures that the sender is not the admin, the task exists, the task has no assigned responsible, and the sender is not an auditor. If the sender is not already a user, assigns the user role to the sender and adds them to the users list. Updates the task to mark the sender as the responsible party."
      },
      "addAuditor(address)": {
        "notice": "Adds a new auditor to the system. Ensures the provided auditor address is valid and not already assigned as an admin, auditor, or user. Creates a new Auditor object and assigns the AUDITOR_ROLE to the given address. Increments the auditorID and emits an event to signal that a new auditor has been added."
      },
      "addUser(address)": {
        "notice": "Adds a new user to the system. Checks various conditions including whether the address is valid, if the sender has the required role, and if the address is not already assigned. If all conditions are met, grants the user role to the address and emits an event."
      },
      "blockAuditor(uint256)": {
        "notice": "Blocks an auditor by setting their block status to true and revoking their auditor role. Ensures the auditor exists by checking if their address is not the zero address. Updates the auditor's block status and revokes their AUDITOR_ROLE."
      },
      "completedTask(uint256,string)": {
        "notice": "Marks a task as completed by providing proof. Ensures the caller has the USER_ROLE and validates that the task exists and the proof is not empty. Checks if the task has already been completed; if not, it records the completion."
      },
      "createTask(string,string,string)": {
        "notice": "Creates a new task with the given name, description, and rules. Ensures the provided name, description, and rules are not empty and that a reward is provided. Stores the task in the tasks mapping with a unique taskID and initializes task properties. Emits a TaskAdded event to signal that a new task has been created."
      },
      "createTaskWithResponsible(string,string,string,address)": {
        "notice": "Creates a new task with the specified name, description, rules, and responsible address. Ensures the provided name, description, and rules are not empty. Validates that a reward is provided and that the responsible address is not an admin or auditor. Assigns the task to the responsible address, granting the user role if not already assigned. Emits events to signal the addition of the user (if new) and the task."
      },
      "getAllAuditors()": {
        "notice": "Retrieves a list of all auditors. Creates a new array with the length equal to the number of auditors (auditorID). Iterates over the auditors mapping to populate the array with auditor details. Returns the array of auditors."
      },
      "getAllTasks()": {
        "notice": "Retrieves a list of all tasks. Ensures the caller has either the default admin role or the auditor role. Creates a new array with the length equal to the number of tasks. Iterates over the tasks mapping to populate the array with task details."
      },
      "getAllUsers()": {
        "notice": "Retrieves a list of all user addresses. Creates a new array with the length equal to the current number of users (userID). Iterates over the users mapping to populate the array with user addresses. Returns the array of user addresses."
      },
      "getAuditorForAddress(address)": {
        "notice": "Checks if a given address is associated with an auditor. Iterates through the auditors mapping to see if the address matches any existing auditor addresses. Returns true if a match is found; otherwise, returns false."
      },
      "getCompletedTask(uint256)": {
        "notice": "Retrieves a completed task by its task ID. Iterates through the tasksCompleted mapping to find the task with the matching task ID. Returns the completed task if found, otherwise returns a default TaskCompleted object."
      },
      "getTask(uint256)": {
        "notice": "Retrieves the name and description of a task by its ID. Accesses the task from the tasks mapping using the provided task ID. Returns the task's name and description."
      },
      "getTasksByResponsible()": {
        "notice": "Retrieves all tasks assigned to the caller. Ensures the caller has the USER_ROLE and the sender address is not the zero address. Counts the number of tasks assigned to the caller. Creates an array to store these tasks. Iterates over the tasks mapping to populate the array with tasks assigned to the caller."
      },
      "getTasksWithoutResponsible()": {
        "notice": "Retrieves a list of tasks that do not have an assigned responsible address. Iterates through the tasks mapping to count the number of tasks without a responsible address. Creates an array to store these tasks. Populates the array with tasks that have no responsible address. Returns the array of tasks without a responsible address."
      },
      "getUserForAddress(address)": {
        "notice": "Checks if a given address is associated with any user. Validates that the provided address is not the zero address. Iterates through the user mapping to see if the address matches any existing user addresses. Returns true if a match is found; otherwise, returns false."
      },
      "unlockAuditor(uint256)": {
        "notice": "Unlocks an auditor by setting their block status to false and re-granting their auditor role. Ensures the auditor exists by checking if their address is not the zero address. Updates the auditor's block status and grants them the AUDITOR_ROLE again."
      },
      "verifiedTask(uint256,bool)": {
        "notice": "Verifies a completed task. Checks if the sender has either the default admin role or the auditor role. Ensures the proof is provided and the task exists. If verified, assigns the verifier and transfers the reward to the responsible. If not verified, releases the task for reassignment."
      }
    },
    "version": 1
  },
  "storageLayout": {
    "storage": [
      {
        "astId": 26,
        "contract": "contracts/TaskContract.sol:TaskContract",
        "label": "_roles",
        "offset": 0,
        "slot": "0",
        "type": "t_mapping(t_bytes32,t_struct(RoleData)21_storage)"
      },
      {
        "astId": 462,
        "contract": "contracts/TaskContract.sol:TaskContract",
        "label": "taskID",
        "offset": 0,
        "slot": "1",
        "type": "t_uint256"
      },
      {
        "astId": 465,
        "contract": "contracts/TaskContract.sol:TaskContract",
        "label": "auditorID",
        "offset": 0,
        "slot": "2",
        "type": "t_uint256"
      },
      {
        "astId": 468,
        "contract": "contracts/TaskContract.sol:TaskContract",
        "label": "userID",
        "offset": 0,
        "slot": "3",
        "type": "t_uint256"
      },
      {
        "astId": 471,
        "contract": "contracts/TaskContract.sol:TaskContract",
        "label": "taskCompletedID",
        "offset": 0,
        "slot": "4",
        "type": "t_uint256"
      },
      {
        "astId": 473,
        "contract": "contracts/TaskContract.sol:TaskContract",
        "label": "admin",
        "offset": 0,
        "slot": "5",
        "type": "t_address"
      },
      {
        "astId": 513,
        "contract": "contracts/TaskContract.sol:TaskContract",
        "label": "tasks",
        "offset": 0,
        "slot": "6",
        "type": "t_mapping(t_uint256,t_struct(Task)488_storage)"
      },
      {
        "astId": 518,
        "contract": "contracts/TaskContract.sol:TaskContract",
        "label": "auditors",
        "offset": 0,
        "slot": "7",
        "type": "t_mapping(t_uint256,t_struct(Auditor)495_storage)"
      },
      {
        "astId": 522,
        "contract": "contracts/TaskContract.sol:TaskContract",
        "label": "users",
        "offset": 0,
        "slot": "8",
        "type": "t_mapping(t_uint256,t_address)"
      },
      {
        "astId": 527,
        "contract": "contracts/TaskContract.sol:TaskContract",
        "label": "tasksCompleted",
        "offset": 0,
        "slot": "9",
        "type": "t_mapping(t_uint256,t_struct(TaskCompleted)508_storage)"
      }
    ],
    "types": {
      "t_address": {
        "encoding": "inplace",
        "label": "address",
        "numberOfBytes": "20"
      },
      "t_address_payable": {
        "encoding": "inplace",
        "label": "address payable",
        "numberOfBytes": "20"
      },
      "t_bool": {
        "encoding": "inplace",
        "label": "bool",
        "numberOfBytes": "1"
      },
      "t_bytes32": {
        "encoding": "inplace",
        "label": "bytes32",
        "numberOfBytes": "32"
      },
      "t_mapping(t_address,t_bool)": {
        "encoding": "mapping",
        "key": "t_address",
        "label": "mapping(address => bool)",
        "numberOfBytes": "32",
        "value": "t_bool"
      },
      "t_mapping(t_bytes32,t_struct(RoleData)21_storage)": {
        "encoding": "mapping",
        "key": "t_bytes32",
        "label": "mapping(bytes32 => struct AccessControl.RoleData)",
        "numberOfBytes": "32",
        "value": "t_struct(RoleData)21_storage"
      },
      "t_mapping(t_uint256,t_address)": {
        "encoding": "mapping",
        "key": "t_uint256",
        "label": "mapping(uint256 => address)",
        "numberOfBytes": "32",
        "value": "t_address"
      },
      "t_mapping(t_uint256,t_struct(Auditor)495_storage)": {
        "encoding": "mapping",
        "key": "t_uint256",
        "label": "mapping(uint256 => struct TaskContract.Auditor)",
        "numberOfBytes": "32",
        "value": "t_struct(Auditor)495_storage"
      },
      "t_mapping(t_uint256,t_struct(Task)488_storage)": {
        "encoding": "mapping",
        "key": "t_uint256",
        "label": "mapping(uint256 => struct TaskContract.Task)",
        "numberOfBytes": "32",
        "value": "t_struct(Task)488_storage"
      },
      "t_mapping(t_uint256,t_struct(TaskCompleted)508_storage)": {
        "encoding": "mapping",
        "key": "t_uint256",
        "label": "mapping(uint256 => struct TaskContract.TaskCompleted)",
        "numberOfBytes": "32",
        "value": "t_struct(TaskCompleted)508_storage"
      },
      "t_string_storage": {
        "encoding": "bytes",
        "label": "string",
        "numberOfBytes": "32"
      },
      "t_struct(Auditor)495_storage": {
        "encoding": "inplace",
        "label": "struct TaskContract.Auditor",
        "members": [
          {
            "astId": 490,
            "contract": "contracts/TaskContract.sol:TaskContract",
            "label": "auditorID",
            "offset": 0,
            "slot": "0",
            "type": "t_uint256"
          },
          {
            "astId": 492,
            "contract": "contracts/TaskContract.sol:TaskContract",
            "label": "auditorAddress",
            "offset": 0,
            "slot": "1",
            "type": "t_address"
          },
          {
            "astId": 494,
            "contract": "contracts/TaskContract.sol:TaskContract",
            "label": "block",
            "offset": 20,
            "slot": "1",
            "type": "t_bool"
          }
        ],
        "numberOfBytes": "64"
      },
      "t_struct(RoleData)21_storage": {
        "encoding": "inplace",
        "label": "struct AccessControl.RoleData",
        "members": [
          {
            "astId": 18,
            "contract": "contracts/TaskContract.sol:TaskContract",
            "label": "hasRole",
            "offset": 0,
            "slot": "0",
            "type": "t_mapping(t_address,t_bool)"
          },
          {
            "astId": 20,
            "contract": "contracts/TaskContract.sol:TaskContract",
            "label": "adminRole",
            "offset": 0,
            "slot": "1",
            "type": "t_bytes32"
          }
        ],
        "numberOfBytes": "64"
      },
      "t_struct(Task)488_storage": {
        "encoding": "inplace",
        "label": "struct TaskContract.Task",
        "members": [
          {
            "astId": 475,
            "contract": "contracts/TaskContract.sol:TaskContract",
            "label": "taskID",
            "offset": 0,
            "slot": "0",
            "type": "t_uint256"
          },
          {
            "astId": 477,
            "contract": "contracts/TaskContract.sol:TaskContract",
            "label": "name",
            "offset": 0,
            "slot": "1",
            "type": "t_string_storage"
          },
          {
            "astId": 479,
            "contract": "contracts/TaskContract.sol:TaskContract",
            "label": "description",
            "offset": 0,
            "slot": "2",
            "type": "t_string_storage"
          },
          {
            "astId": 481,
            "contract": "contracts/TaskContract.sol:TaskContract",
            "label": "rules",
            "offset": 0,
            "slot": "3",
            "type": "t_string_storage"
          },
          {
            "astId": 483,
            "contract": "contracts/TaskContract.sol:TaskContract",
            "label": "reward",
            "offset": 0,
            "slot": "4",
            "type": "t_uint256"
          },
          {
            "astId": 485,
            "contract": "contracts/TaskContract.sol:TaskContract",
            "label": "responsible",
            "offset": 0,
            "slot": "5",
            "type": "t_address_payable"
          },
          {
            "astId": 487,
            "contract": "contracts/TaskContract.sol:TaskContract",
            "label": "completed",
            "offset": 20,
            "slot": "5",
            "type": "t_bool"
          }
        ],
        "numberOfBytes": "192"
      },
      "t_struct(TaskCompleted)508_storage": {
        "encoding": "inplace",
        "label": "struct TaskContract.TaskCompleted",
        "members": [
          {
            "astId": 497,
            "contract": "contracts/TaskContract.sol:TaskContract",
            "label": "taskCompletedID",
            "offset": 0,
            "slot": "0",
            "type": "t_uint256"
          },
          {
            "astId": 499,
            "contract": "contracts/TaskContract.sol:TaskContract",
            "label": "taskID",
            "offset": 0,
            "slot": "1",
            "type": "t_uint256"
          },
          {
            "astId": 501,
            "contract": "contracts/TaskContract.sol:TaskContract",
            "label": "proof",
            "offset": 0,
            "slot": "2",
            "type": "t_string_storage"
          },
          {
            "astId": 503,
            "contract": "contracts/TaskContract.sol:TaskContract",
            "label": "verifier",
            "offset": 0,
            "slot": "3",
            "type": "t_address"
          },
          {
            "astId": 505,
            "contract": "contracts/TaskContract.sol:TaskContract",
            "label": "verified",
            "offset": 20,
            "slot": "3",
            "type": "t_bool"
          },
          {
            "astId": 507,
            "contract": "contracts/TaskContract.sol:TaskContract",
            "label": "release",
            "offset": 21,
            "slot": "3",
            "type": "t_bool"
          }
        ],
        "numberOfBytes": "128"
      },
      "t_uint256": {
        "encoding": "inplace",
        "label": "uint256",
        "numberOfBytes": "32"
      }
    }
  }
}